:020000020000FC
:020000001AC024
:020004005DC0DD
:020008005CC0DA
:02000C004BC0E7
:100034003DC00FEF0DBF08E00EBF0FE70AB950E057
:100044005BB9209A289821982298299A2A9A01E043
:100054000093680006E000936B0001E000931B002E
:1000640000E00093800004E00093810000E000932E
:1000740082000BE0009385000CED0093840001E006
:1000840000936F0000E00EBB78940EB300FF02C033
:10009400F09819D00EB301FFF8CFF19833D0F5CF13
:1000A40013B111FFF09A12FFF19A18950BE0009327
:1000B40085000CED00938400189A189518951895EE
:1000C4005F775BB908955FE3FBDF3BD056E0F8DF71
:1000D40038D05BE5F5DF35D05FE4F2DF32D056E6A9
:1000E400EFDF2FD05DE6ECDF2CD05DE7E9DF29D030
:1000F40057E0E6DF26D05FE7E3DF23D05FE6E0DF0B
:1001040020D008955FE6DCDF1CD05FE7D9DF19D08B
:1001140057E0D6DF16D05DE7D3DF13D05DE6D0DF3E
:1001240010D056E6CDDF0DD05FE4CADF0AD05BE520
:10013400C7DF07D056E0C4DF04D05FE3C1DF01D0DE
:10014400089564E67FEF8FEF8A95F1F77A95D9F7F2
:060154006A95C9F7089549
:00000001FF
